:080000000C943C000C9400007C
:100008000C9400000C9400000C9400000C94000068
:100018000C9400000C9400000C9400000C94000058
:100028000C9400000C9400000C9400000C94000048
:100038000C9400000C9400000C9400000C94000038
:100048000C9469000C9400000C9400003F065B4F70
:10005800666D7D077F6F4E61BC00010203040506D3
:100068000708030060015E000800640162000000E8
:10007800F894EE27ECBBF1E0FBBFEBBFE5BF8DE0EA
:10008800A2E0BB27ED938A95E9F780E094E0A0E62B
:10009800ED930197E9F7EAE6F0E0859195910097ED
:1000A80061F0A591B59105901590BF01F0010590FB
:1000B8000D920197E1F7FB01F0CFEFE5EDBFE4E02A
:1000C800EEBFC0E6D1E00C948E000A921A92FA9222
:1000D8006A937A938A939A93AA93BA93EA93FA9330
:1000E800EFB7EA93A0E6B1E00E9492013197604031
:1000F80070400E94970154D0E991EFBFF991E991BE
:10010800B991A9919991899179916991F9901990E9
:100118000990189500E010E031E0E0E0EABBEBBBA5
:10012800E7BBE5E0E8BBEFEFE4BBE0E0E5BBEFEF02
:10013800E1BBE2BBEBB7E062EBBFE0E0E5BFE4BFE9
:10014800E0E2EABF789431E000E010E00830E0E057
:100158001E07ACF4A5E0B0E00E942F01E32FE09564
:10016800E2BBA4E6B1E0A00FB11FEC91F0E0EC5ABD
:10017800FF4F049005BA330F0F5F1F4FE7CFB099B9
:100188000DC0A0E6B1E00E949201EF5FFF4F6F4FF4
:100198007F4F0E94970104D0B09BFECFD4CFFFCFF2
:1001A80039D00E946B01E0936B0134D040D0E093CA
:1001B8006A0148D0E4E6F0E060E070E038D0E0930F
:1001C800690140D0E8EEF3E060E070E030D0E09301
:1001D800680138D0E0E1F7E260E070E028D0E09311
:1001E800670130D0E0EAF6E861E070E020D0E09303
:1001F800660128D0E0E4F2E46FE070E018D0E09304
:10020800650120D0E0E8F6E968E970E010D0E093F5
:1002180064010895A0916001B0916101809162012B
:1002280090916301EAE0F0E060E070E008950E94D8
:100238006601DF01CB01EAE0F0E060E070E00E94D7
:100248006B010895A0916001B091610180916201F4
:10025800909163010895109639F08AEF90E0019724
:10026800F1F7A8951197C9F70895F09560957095DD
:10027800E195FF4F6F4F7F4F08953F934F935F93E3
:10028800002411244427552730E2AA0FBB1F881FDA
:10029800991F001C111C441F551F0E1A1F0A460BDC
:1002A800570B28F40E0E1F1E461F571F01C0A160D2
:1002B8003A9559F7FD01BC01D001CA015F914F91F0
:1002C8003F91089518D0D9DF0EF4CFDF0895E89450
:1002D80097FF09C0A095B09580959095AF5FBF4FE7
:1002E8008F4F9F4F689477FDC0DFC7DFFD01BC01CA
:1002F8000EF4BBDF0895E89477FF02C0B6DF689478
:1003080097FF0BC00024A095B09580959095119605
:10031800801D901D00F8039400FA0895ED91FD9159
:100328006D917D9108957E936E93FE93EE9308955B
:00000001FF
