:0E0000000C9439000C9400000C9400000C9439
:10000E0000000C9400000C9400000C9400000C9462
:10001E0000000C9400000C9400000C9400000C9452
:10002E0000000C9400000C9400000C9400000C9442
:10003E0000000C9400000C9400000C9466000C94CC
:10004E0000000C940000FEFDFBF73738392F3435D5
:10005E00362A3132332D43303D2B80C002006001F1
:10006E0068000000F894EE27ECBBF1E0FBBFEBBF9D
:10007E00E5BF8DE0A2E0BB27ED938A95E9F780E01E
:10008E0094E0A0E6ED930197E9F7EAE6F0E08591BA
:10009E009591009761F0A591B59105901590BF01CE
:1000AE00F00105900D920197E1F7FB01F0CFEFE51E
:1000BE00EDBFE4E0EEBFC0E6D1E00C948D000A92F5
:1000CE001A92FA926A937A938A939A93AA93BA930C
:1000DE00EA93FA93EFB7EA931A9329D01E2FE0EF23
:1000EE00E2BB133411F49CD002C0A12FA3D01991FE
:1000FE00E991EFBFF991E991B991A99199918991FE
:10010E0079916991F990199009901895E0EFE2BBF9
:10011E00EFE0E1BBA0E1A2D0EBB7E062EBBFE0E025
:10012E00E5BFE4BFE0E2EABF7894FFCFFFCF0E94C5
:10013E00790100E010E02FEF3FEF40E050E000E0EB
:10014E0010E00430E0E01E07D4F5F801EC5AFF4F42
:10015E00049002BA849902C020E030E0859902C072
:10016E0021E030E0869902C022E030E0879902C09B
:10017E0023E030E0EFEFFFEFE217F307C9F0F801ED
:10018E000E947401E20FF31FAF01849BFECF859B8B
:10019E00FECF869BFECF879BFECFF801A8E5B0E091
:1001AE000E947401EA0FFB1FE20FF31FE49107C0D8
:1001BE00A2E3B0E00E946A010F5F1F4FC2CF0E9400
:1001CE00800126960895AA93EBB3EF70AE2FE881C7
:1001DE00E07FEA2BEBBB82E08A95F1F7DA9A82E0B8
:1001EE008A95F1F7DA9882E08A95F1F75FC0AA93C3
:1001FE00A881E9DFE881E295E883A881E4DF81E167
:10020E008A95F1F753C0AA93E881F0E0E05AFE4FC9
:10021E00E081A981AE0FEBDF5980488022960895C8
:10022E00A2E046D0ACE0E3DFA1E042D0E0E04E2E0B
:10023E005E2E0895AA93A881AA3011F0571440F0AB
:10024E00E0E0EA934394A42DDEDFA881AA3071F199
:10025E005394D89AA881CBDFD89828C0AA93EAB332
:10026E00E06FEABBD29AD09AD19ADA98D898D998F8
:10027E007880E881E058E0936201E881E054E093F1
:10028E006301A4E1B0E00E946A0117D016D015D028
:10029E00A0E299DF81E28A95F1F7A8E2A8DFA4E057
:1002AE00A6DFA5E8A4DFA6E0A2DFBADF21960895B7
:1002BE009EDFA3E0B0E00C946A01A0E384DF81E24C
:1002CE008A95F1F70895109639F08AEF90E001972C
:1002DE00F1F7A8951197C9F70895EE0FFF1FEE0FCE
:1002EE00FF1F08955A934A933A932A931A930A93A7
:1002FE0008955D814C813B812A8119810881089581
:00000001FF
