:0C0000000C9443000C9400000C940000D1
:10000C000C9400000C9400000C9400000C94000064
:10001C000C9400000C9400000C9400000C94000054
:10002C000C9400000C9400000C9400000C94000044
:10003C000C9400000C9400000C9400000C94000034
:10004C000C9400000C9400006E616261736869642A
:10005C000000000000000000000000006B686173ED
:10006C007465682000000000000000000000000023
:10007C0080C0020060017C000000F894EE27ECBB0D
:10008C00F1E0FBBFEBBFE5BF8DE0A2E0BB27ED933A
:10009C008A95E9F780E094E0A0E6ED930197E9F703
:1000AC00EEE7F0E085919591009761F0A591B591FF
:1000BC0005901590BF01F00105900D920197E1F7A5
:1000CC00FB01F0CFEFE5EDBFE4E0EEBFC0E6D1E021
:1000DC000C947000A89788E2A0E0B0E0E4E5F0E0B2
:1000EC000E94470110E001E0E0E0EABBEBBBE7BB9C
:1000FC00E8BBE4BBE5BBE1BBE2BBA0E10E940801AD
:10010C000E94D800FE017496FA93EA93DE011296CF
:10011C000E949A00DE0154960E94F700A4E6B0E01B
:10012C000E943D01EDCFFFCFBA93AA93E991F991CB
:10013C00A991B991CD016D916623E9F71197619160
:10014C006D936623E1F7FC010895AA93EBB3EF706E
:10015C00AE2FE881E07FEA2BEBBB82E08A95F1F7CA
:10016C00DA9A82E08A95F1F7DA9882E08A95F1F7CB
:10017C0071C0AA93A881E9DFE881E295E883A881A0
:10018C00E4DF81E18A95F1F765C0AA93E881F0E09C
:10019C00E05AFE4FE081A981AE0FEBDF5980488019
:1001AC0022960895A2E058D0ACE0E3DFA1E054D051
:1001BC00E0E04E2E5E2E0895AA93A881AA3011F08D
:1001CC00571448F0E0E0EA934394A42DDEDFA881B5
:1001DC00AA3009F43FC05394D89AA881CADFD898A2
:1001EC0039C0BA93AA931A93A981BA81ED91A983C4
:1001FC00BA831E2FE03019F0A12FDEDFF5CF188166
:10020C0023960895AA93EAB3E06FEABBD29AD09AE8
:10021C00D19ADA98D898D9987880E881E058E09308
:10022C006201E881E054E0936301A4E1B0E00E9434
:10023C003D0117D016D015D0A0E287DF81E28A9558
:10024C00F1F7A8E296DFA4E094DFA5E892DFA6E040
:10025C0090DFA8DF219608958CDFA3E0B0E00C942A
:10026C003D01A0E372DF81E28A95F1F708951096C3
:10027C0039F08AEF90E00197F1F7A8951197C9F73B
:10028C000895AC0FBD1F05900D928A95E1F7089566
:00000001FF
