:100000000C942A000C9400000C9400000C94000046
:100010000C9400000C9400000C9400000C94000060
:100020000C9400000C9400000C9400000C94000050
:100030000C9400000C9400000C9400000C94000040
:100040000C9400000C9400000C9400000C94000030
:100050000C940000F894EE27ECBBF1E0FBBFEBBF83
:10006000E5BF8DE0A2E0BB27ED938A95E9F780E03C
:1000700094E0A0E6ED930197E9F7EFE5EDBFE4E04A
:10008000EEBFC0E6D1E00C94450000E010E0E0E0F7
:10009000EABBEBBBEFE0E7BBE0E0E8BBE4BBE5BB02
:1000A000E1BBE2BBE1E0E8BB00E010E00430E0E0EF
:1000B0001E0754F4A8ECB0E00E946600E8B3EE0F0F
:1000C000E8BB0F5F1F4FF2CFEDCFFFCF109639F097
:1000D00088EE93E00197F1F7A8951197C9F7089575
:00000001FF
