:0A0000000C942A000C9400000C94EC
:10000A0000000C9400000C9400000C9400000C9466
:10001A0000000C9400000C9400000C9400000C9456
:10002A0000000C9400000C9400000C9400000C9446
:10003A0000000C9400000C9400000C9400000C9436
:10004A0000000C9400000C940000F894EE27ECBB1E
:10005A00F1E0FBBFEBBFE5BF8DE0A2E0BB27ED936C
:10006A008A95E9F780E094E0A0E6ED930197E9F735
:10007A00EFE5EDBFE4E0EEBFC0E6D1E00C94450049
:10008A00E0E0EABBEFEFEBBBE0E0E7BBE8BBEFEF9A
:10009A00E4BBE0E0E5BBE0E8E1BBE0E0E2BBC89935
:1000AA0005C0E3B3EF5FE5BBC89BFECFF8CFFFCF38
:00000001FF
