:040000000C9452000A
:100004000C9400000C9400000C9400000C9400006C
:100014000C9400000C9400000C9400000C9400005C
:100024000C9400000C9400000C9400000C9400004C
:100034000C9400000C9400000C9400000C9400003C
:100044000C9400000C9400000C947F000C940000AD
:100054001027E80364000A000100001000011000EA
:1000640001000000000000000000253032643A2541
:100074003032643A253032643A253032640001006B
:100084002D4E414E00494E46000080C00800040039
:100094006600010074018200020078018E000000F5
:1000A400F894EE27ECBBF1E0FBBFEBBFE5BF8DE0BE
:1000B400A2E0BB27ED938A95E9F780E094E0A0E6FF
:1000C400ED930197E9F7E0E9F0E0859195910097C8
:1000D40061F0A591B59105901590BF01F0010590CF
:1000E4000D920197E1F7FB01F0CFEFE5EDBFE4E0FE
:1000F400EEBFC0E6D1E00C94B000EA93FA93EFB7F8
:10010400EA93F20131962F01E4E6F0E0E415F505F7
:1001140001F5F30131963F0144245524ECE3F0E06A
:10012400E615F705B1F4F40131964F0166247724FE
:10013400ECE3F0E0E815F90561F4F50131965F01AF
:1001440088249924E8E1F0E0EA15FB0511F4AA24D7
:10015400BB24E991EFBFF991E9911895E0E0EABB7E
:10016400EBBBE8E0E7BBE0E0E8BBE4BBE5BBE1BB3D
:10017400E2BBEDE1E3BFE0E0E2BFE8E2ECBFE2E0D6
:10018400E9BFA0E10E94F3027894E0E6F1E0FA937B
:10019400EA93EEE6F0E0FA93EA93F5010E943A035B
:1001A400F4010E943A03F3010E943A03F2010E940F
:1001B4003A0380E10E945E026496E0E0EA93A0E0E4
:1001C4000E94B202A0E6B1E00E94E202DECFFFCFBD
:1001D400BA93AA931A930A93AA81BB8112960E9496
:1001E4008F03309759F1AA81BB8114960E948F0323
:1001F4008F01309761F00230E0E01E0798F0F801BB
:1002040031978F01AA81BB811496ED93FC93AA8147
:10021400BB811296ED91FD913196FE93EE93319749
:10022400AC81A083AA81BB810E948F03FF232AF0A3
:10023400ED91FD913196FE93EE9306C0AA81BB81A8
:10024400EFEFFFEFED93FC93198108812596089554
:10025400BA93AA9326970E949C0310E0AC85BD85AF
:10026400E0E0F0E0ED93FC93EA89FB893196EA8BB8
:10027400FB8B3197E4912E2FE03009F415C1E12F67
:10028400E03039F4253211F411E002C00E943F033A
:100294000AC1E130A9F4253219F40E943F0302C1D6
:1002A40012E040E000E02D3211F401E0FCC02B32FA
:1002B40011F44BE2F8C0203211F440E2F4C002C061
:1002C400E23039F450E013E0203311F40068EBC05D
:1002D40003C0E33009F0E7C0203310F02A3308F0FC
:1002E40007C0AAE05A9F502DE22FE0535E0FDBC0F7
:1002F400E22FE33649F40E944603E889F989A48190
:10030400AA930E944C03CEC0E33741F40E944603F3
:100314000E9452030E9421031E2F0AC0E03761F499
:100324000E9446030E9452030E942D031E2F086060
:1003340002600F7730E034C0E43611F0E93611F48E
:10034400046002C0E53731F4E4E5F0E0EE83FF83B6
:1003540015E00CC0E83511F4086003C0E83709F073
:10036400A1C0EEE5F0E0EE83FF8314E002FF14C0C9
:100374000E9446030E945C03AB85AA233AF4EA85F3
:10038400FB850E948603EA87FB874DE2403011F02B
:100394001F5F01C00B7F04C00E9446030E945C03E0
:1003A40000FD11C0151778F407FF08C002FF04C050
:1003B4000B7F242F115001C020E301C020E20E94D2
:1003C4003F035150EFCF312F01FF17C03030A1F060
:1003D40003FF06C0EE81FF812591EE83FF8305C0F4
:1003E400AE81BF812D91AE83BF830E943F03503005
:1003F40009F051503150EACF4BC020E3EE81FF8128
:100404000E949303E887F987EE81FF813296EE8399
:10041400FF83E885F985AA85BB85AE17BF0750F031
:100424002F5FA885B985EA85FB85EA1BFB0BEA8764
:10043400FB87EFCF2A3328F003FF02C0295F01C0F6
:10044400295D04FD1AC0213320F4A885B9851197CC
:1004540009F409C0531710F000FF01C013C020E2D3
:1004640007FF0BC020E3006102FF07C00B7F4A9324
:100474000E944C03503009F051500E943F03503009
:1004840009F051503150A885B985129708F0B5CFBD
:1004940000FF08C0503031F05150E0E2EA930E946E
:1004A4004C03F8CF10E0E0CEAC85BD850E948F03ED
:1004B4000E94A30364960895FF92F82E26970E9443
:1004C4009E030E946403309719F4EFEFFFEF23C0FB
:1004D400DE0116960E9482038D010E946403EE835E
:1004E400FF83E0E0E887E987DE011A960E94820331
:1004F4000E948F03FA93EA931A930A93EAEEF0E0C8
:10050400FA93EA93DE011A96A3DE9F01AE81BF81BE
:10051400E0E0EC93F9010E94A5032A96FF90089568
:10052400AA93EBB3EF70AE2FE881E07FEA2BEBBB2D
:1005340087E08A95F1F7DA9A87E08A95F1F7DA98F5
:1005440087E08A95F1F779C0AA93A881E9DFE88169
:10055400E295E883A881E4DF83E48A95F1F76DC02E
:10056400AA93E881F0E0E858FE4FE081A981AE0F3C
:10057400EBDFD980C88022960895A2E00E946B0325
:10058400ACE0E2DFA1E00E946B03E0E0CE2EDE2EC1
:100594000895AA93A881AA3021F0E0917C01DE1687
:1005A40048F0E0E0EA93C394AC2DDADFA881AA30E6
:1005B40009F443C0D394D89AA881C6DFD8983DC023
:1005C400BA93AA931A93A981BA81ED91A983BA83A4
:1005D4001E2FE03019F0A12FDCDFF5CF1881239610
:1005E4000895AA93EAB3E06FEABBD29AD09AD19A5B
:1005F400DA98D898D998E881E0937C01E058E093A0
:100604007A01E881E054E0937B01A4E1B0E00E9428
:1006140078030E9471030E9471030E947103A0E297
:100624007FDF85E88A95F1F7A8E28EDFA4E08CDF0E
:10063400A5E88ADFA6E088DFA0DF21960895BA93B3
:10064400AA93A991B991EE27FF276D91662311F022
:100654003196FBCF0895BA93AA93AA27BB27E991B1
:10066400F9910590002011F01196FBCFFD0108953A
:100674000E948A030E94970308952A93AD85BE853C
:10068400EF85F88909950895E889F9893497E88B05
:10069400F98B0895AD85BE85EF85F8890995089590
:1006A400A889B98914960E948F03EE83FF83AE81D3
:1006B400BF810895A889B98914960E948F03EA8797
:1006C400FB870895DE011C960E9482030E948F031B
:1006D40008950E94A602A3E0B0E00C947803A0E37E
:1006E4000E94920285E88A95F1F70895109639F0F0
:1006F40088EE93E00197F1F7A8951197C9F708954B
:100704000024AF0DB01D0895F195E195F0400895D2
:100714006F2F660F660B762F0895ED91FC9111975C
:1007240008950590F491E02D08957A936A93FA93CD
:10073400EA9308955A934A933A932A931A930A93FD
:1007440008955D814C813B812A8119810881089536
:00000001FF
