:0C0000000C942F000C945C000C94620027
:10000C000C9400000C9400000C9400000C94000064
:10001C000C9400000C9400000C9400000C94000054
:10002C000C9400000C9400000C9400000C94000044
:10003C000C9400000C9400000C9400000C94000034
:10004C000C9400000C94000080C002006A01540063
:10005C000000F894EE27ECBBF1E0FBBFEBBFE5BF73
:10006C008DE0A2E0BB27ED938A95E9F780E094E060
:10007C00A0E6ED930197E9F7E6E5F0E0859195911F
:10008C00009761F0A591B59105901590BF01F00115
:10009C0005900D920197E1F7FB01F0CFEFE5EDBF75
:1000AC00E4E0EEBFC0E6D1E00C946C00EA93EFB74D
:1000BC00EA93ECB7EF5F05C0EA93EFB7EA93ECB7BE
:1000CC00E150ECBFE991EFBFE9911895E8E0E7BB8F
:1000DC00E0E0E8BBE1BBECE0E2BBE4E4E3BFE0E082
:1000EC00ECBFE9BFEBB7E06CEBBFEAE0E5BFE0E0EB
:1000FC00E4BFE0ECEABF7894E0E0EA93A0E025D01E
:10010C00A0E6B1E044D0F8CFFFCFAA93EBB3EF70E9
:10011C00AE2FE881E07FEA2BEBBB87E08A95F1F705
:10012C00DA9A87E08A95F1F7DA9887E08A95F1F701
:10013C002CC0AA93A881E9DFE881E295E883A88125
:10014C00E4DF83E48A95F1F720C0AA93E881F0E01C
:10015C00E659FE4FE081A981AE0FEBDF5980488054
:10016C0022960895AA93A881AA3011F0571440F052
:10017C00E0E0EA934394A42DE8DFA881AA3029F0AB
:10018C005394D89AA881D5DFD89821960895BA931C
:10019C00AA931A93A981BA81ED91A983BA831E2FD0
:1001AC00E03019F0A12FDEDFF5CF188123960895EA
:00000001FF
